{
  "_format": "hh-sol-artifact-1",
  "contractName": "NFTPlace",
  "sourceName": "contracts/NFTPlace.sol",
  "abi": [
    {
      "inputs": [],
      "stateMutability": "nonpayable",
      "type": "constructor"
    },
    {
      "anonymous": false,
      "inputs": [
        {
          "indexed": true,
          "internalType": "uint256",
          "name": "itemId",
          "type": "uint256"
        },
        {
          "indexed": true,
          "internalType": "address",
          "name": "nftContract",
          "type": "address"
        },
        {
          "indexed": true,
          "internalType": "uint256",
          "name": "tokenId",
          "type": "uint256"
        },
        {
          "indexed": false,
          "internalType": "address",
          "name": "seller",
          "type": "address"
        },
        {
          "indexed": false,
          "internalType": "address",
          "name": "owner",
          "type": "address"
        },
        {
          "indexed": false,
          "internalType": "uint256",
          "name": "price",
          "type": "uint256"
        },
        {
          "indexed": false,
          "internalType": "uint256",
          "name": "amount",
          "type": "uint256"
        },
        {
          "indexed": false,
          "internalType": "bool",
          "name": "sold",
          "type": "bool"
        }
      ],
      "name": "ItemCreated",
      "type": "event"
    },
    {
      "inputs": [
        {
          "internalType": "address",
          "name": "nftContract",
          "type": "address"
        },
        {
          "internalType": "uint256",
          "name": "tokenId",
          "type": "uint256"
        },
        {
          "internalType": "uint256",
          "name": "price",
          "type": "uint256"
        },
        {
          "internalType": "uint256",
          "name": "amount",
          "type": "uint256"
        }
      ],
      "name": "createItem",
      "outputs": [],
      "stateMutability": "payable",
      "type": "function"
    },
    {
      "inputs": [
        {
          "internalType": "address",
          "name": "nftContract",
          "type": "address"
        },
        {
          "internalType": "uint256",
          "name": "itemId",
          "type": "uint256"
        },
        {
          "internalType": "uint256",
          "name": "amount",
          "type": "uint256"
        }
      ],
      "name": "createSale",
      "outputs": [],
      "stateMutability": "payable",
      "type": "function"
    },
    {
      "inputs": [],
      "name": "fetchItems",
      "outputs": [
        {
          "components": [
            {
              "internalType": "uint256",
              "name": "itemId",
              "type": "uint256"
            },
            {
              "internalType": "address",
              "name": "nftContract",
              "type": "address"
            },
            {
              "internalType": "uint256",
              "name": "tokenId",
              "type": "uint256"
            },
            {
              "internalType": "address payable",
              "name": "seller",
              "type": "address"
            },
            {
              "internalType": "address payable",
              "name": "owner",
              "type": "address"
            },
            {
              "internalType": "uint256",
              "name": "price",
              "type": "uint256"
            },
            {
              "internalType": "uint256",
              "name": "amount",
              "type": "uint256"
            },
            {
              "internalType": "bool",
              "name": "sold",
              "type": "bool"
            }
          ],
          "internalType": "struct NFTPlace.Item[]",
          "name": "",
          "type": "tuple[]"
        }
      ],
      "stateMutability": "view",
      "type": "function"
    },
    {
      "inputs": [],
      "name": "fetchItemsCreated",
      "outputs": [
        {
          "components": [
            {
              "internalType": "uint256",
              "name": "itemId",
              "type": "uint256"
            },
            {
              "internalType": "address",
              "name": "nftContract",
              "type": "address"
            },
            {
              "internalType": "uint256",
              "name": "tokenId",
              "type": "uint256"
            },
            {
              "internalType": "address payable",
              "name": "seller",
              "type": "address"
            },
            {
              "internalType": "address payable",
              "name": "owner",
              "type": "address"
            },
            {
              "internalType": "uint256",
              "name": "price",
              "type": "uint256"
            },
            {
              "internalType": "uint256",
              "name": "amount",
              "type": "uint256"
            },
            {
              "internalType": "bool",
              "name": "sold",
              "type": "bool"
            }
          ],
          "internalType": "struct NFTPlace.Item[]",
          "name": "",
          "type": "tuple[]"
        }
      ],
      "stateMutability": "view",
      "type": "function"
    },
    {
      "inputs": [],
      "name": "fetchMyNFTs",
      "outputs": [
        {
          "components": [
            {
              "internalType": "uint256",
              "name": "itemId",
              "type": "uint256"
            },
            {
              "internalType": "address",
              "name": "nftContract",
              "type": "address"
            },
            {
              "internalType": "uint256",
              "name": "tokenId",
              "type": "uint256"
            },
            {
              "internalType": "address payable",
              "name": "seller",
              "type": "address"
            },
            {
              "internalType": "address payable",
              "name": "owner",
              "type": "address"
            },
            {
              "internalType": "uint256",
              "name": "price",
              "type": "uint256"
            },
            {
              "internalType": "uint256",
              "name": "amount",
              "type": "uint256"
            },
            {
              "internalType": "bool",
              "name": "sold",
              "type": "bool"
            }
          ],
          "internalType": "struct NFTPlace.Item[]",
          "name": "",
          "type": "tuple[]"
        }
      ],
      "stateMutability": "view",
      "type": "function"
    },
    {
      "inputs": [],
      "name": "getListingPrice",
      "outputs": [
        {
          "internalType": "uint256",
          "name": "",
          "type": "uint256"
        }
      ],
      "stateMutability": "view",
      "type": "function"
    },
    {
      "inputs": [
        {
          "internalType": "address",
          "name": "",
          "type": "address"
        },
        {
          "internalType": "address",
          "name": "",
          "type": "address"
        },
        {
          "internalType": "uint256[]",
          "name": "",
          "type": "uint256[]"
        },
        {
          "internalType": "uint256[]",
          "name": "",
          "type": "uint256[]"
        },
        {
          "internalType": "bytes",
          "name": "",
          "type": "bytes"
        }
      ],
      "name": "onERC1155BatchReceived",
      "outputs": [
        {
          "internalType": "bytes4",
          "name": "",
          "type": "bytes4"
        }
      ],
      "stateMutability": "nonpayable",
      "type": "function"
    },
    {
      "inputs": [
        {
          "internalType": "address",
          "name": "",
          "type": "address"
        },
        {
          "internalType": "address",
          "name": "",
          "type": "address"
        },
        {
          "internalType": "uint256",
          "name": "",
          "type": "uint256"
        },
        {
          "internalType": "uint256",
          "name": "",
          "type": "uint256"
        },
        {
          "internalType": "bytes",
          "name": "",
          "type": "bytes"
        }
      ],
      "name": "onERC1155Received",
      "outputs": [
        {
          "internalType": "bytes4",
          "name": "",
          "type": "bytes4"
        }
      ],
      "stateMutability": "nonpayable",
      "type": "function"
    },
    {
      "inputs": [
        {
          "internalType": "bytes4",
          "name": "interfaceId",
          "type": "bytes4"
        }
      ],
      "name": "supportsInterface",
      "outputs": [
        {
          "internalType": "bool",
          "name": "",
          "type": "bool"
        }
      ],
      "stateMutability": "view",
      "type": "function"
    }
  ],
  "bytecode": "0x60806040526658d15e1762800060045534801561001b57600080fd5b506001600055600380546001600160a01b0319163317905561111d806100426000396000f3fe6080604052600436106100865760003560e01c8063ad78ba7b11610059578063ad78ba7b14610115578063bc197c811461012a578063f064c32e1461016f578063f23a6e6114610184578063f6176e64146101b057600080fd5b806301ffc9a71461008b57806312e85585146100c0578063202e3740146100de5780639f161af214610100575b600080fd5b34801561009757600080fd5b506100ab6100a6366004610f3a565b6101c3565b60405190151581526020015b60405180910390f35b3480156100cc57600080fd5b506004546040519081526020016100b7565b3480156100ea57600080fd5b506100f36101fa565b6040516100b79190610fa1565b61011361010e366004610ed0565b6103f4565b005b34801561012157600080fd5b506100f3610614565b34801561013657600080fd5b50610156610145366004610dc7565b63bc197c8160e01b95945050505050565b6040516001600160e01b031990911681526020016100b7565b34801561017b57600080fd5b506100f36107be565b34801561019057600080fd5b5061015661019f366004610e6d565b63f23a6e6160e01b95945050505050565b6101136101be366004610f02565b6109af565b60006001600160e01b03198216630271189760e51b14806101f457506301ffc9a760e01b6001600160e01b03198316145b92915050565b6060600061020760015490565b905060008060005b8381101561026a573360056000610227846001611071565b81526020810191909152604001600020600401546001600160a01b0316141561025857610255600184611071565b92505b80610262816110a0565b91505061020f565b5060008267ffffffffffffffff81111561029457634e487b7160e01b600052604160045260246000fd5b6040519080825280602002602001820160405280156102cd57816020015b6102ba610c5b565b8152602001906001900390816102b25790505b50905060005b848110156103eb5733600560006102eb846001611071565b81526020810191909152604001600020600401546001600160a01b031614156103d957600061031b826001611071565b6000818152600560208181526040928390208351610100810185528154815260018201546001600160a01b0390811693820193909352600282015494810194909452600381015482166060850152600481015490911660808401529081015460a0830152600681015460c0830152600781015460ff16151560e08301528551929350918590879081106103be57634e487b7160e01b600052603260045260246000fd5b60209081029190910101526103d4600186611071565b945050505b806103e3816110a0565b9150506102d3565b50949350505050565b6002600054141561044c5760405162461bcd60e51b815260206004820152601f60248201527f5265656e7472616e637947756172643a207265656e7472616e742063616c6c0060448201526064015b60405180910390fd5b60026000818155838152600560208190526040909120908101549101543482146104e0576040805162461bcd60e51b81526020600482015260248101919091527f506c65617365207375626d6974207468652061736b696e67207072696365206960448201527f6e206f7264657220746f20636f6d706c657465207468652070757263686173656064820152608401610443565b6000848152600560205260408082206003015490516001600160a01b03909116913480156108fc02929091818181858888f19350505050158015610528573d6000803e3d6000fd5b50604051637921219560e11b81526001600160a01b0386169063f242432a9061055b903090339086908990600401610f69565b600060405180830381600087803b15801561057557600080fd5b505af1158015610589573d6000803e3d6000fd5b50505060008581526005602052604090206004810180546001600160a01b03191633179055600701805460ff19166001179055506105cb600280546001019055565b6003546004546040516001600160a01b039092169181156108fc0291906000818181858888f19350505050158015610607573d6000803e3d6000fd5b5050600160005550505050565b6060600061062160015490565b9050600061062e60025490565b60015461063b9190611089565b90506000808267ffffffffffffffff81111561066757634e487b7160e01b600052604160045260246000fd5b6040519080825280602002602001820160405280156106a057816020015b61068d610c5b565b8152602001906001900390816106855790505b50905060005b848110156103eb5760006005816106be846001611071565b81526020810191909152604001600020600401546001600160a01b031614156107ac5760006106ee826001611071565b6000818152600560208181526040928390208351610100810185528154815260018201546001600160a01b0390811693820193909352600282015494810194909452600381015482166060850152600481015490911660808401529081015460a0830152600681015460c0830152600781015460ff16151560e083015285519293509185908790811061079157634e487b7160e01b600052603260045260246000fd5b60209081029190910101526107a7600186611071565b945050505b806107b6816110a0565b9150506106a6565b606060006107cb60015490565b905060008060005b8381101561082e5733600560006107eb846001611071565b81526020810191909152604001600020600301546001600160a01b0316141561081c57610819600184611071565b92505b80610826816110a0565b9150506107d3565b5060008267ffffffffffffffff81111561085857634e487b7160e01b600052604160045260246000fd5b60405190808252806020026020018201604052801561089157816020015b61087e610c5b565b8152602001906001900390816108765790505b50905060005b848110156103eb5733600560006108af846001611071565b81526020810191909152604001600020600301546001600160a01b0316141561099d5760006108df826001611071565b6000818152600560208181526040928390208351610100810185528154815260018201546001600160a01b0390811693820193909352600282015494810194909452600381015482166060850152600481015490911660808401529081015460a0830152600681015460c0830152600781015460ff16151560e083015285519293509185908790811061098257634e487b7160e01b600052603260045260246000fd5b6020908102919091010152610998600186611071565b945050505b806109a7816110a0565b915050610897565b60026000541415610a025760405162461bcd60e51b815260206004820152601f60248201527f5265656e7472616e637947756172643a207265656e7472616e742063616c6c006044820152606401610443565b600260005581610a545760405162461bcd60e51b815260206004820152601c60248201527f5072696365206d757374206265206174206c65617374203120776569000000006044820152606401610443565b6004543414610ab15760405162461bcd60e51b8152602060048201526024808201527f5072696365206d75737420626520657175616c20746f206c697374696e6720706044820152637269636560e01b6064820152608401610443565b610abf600180546001019055565b6000610aca60015490565b60408051610100810182528281526001600160a01b0388811660208084018281528486018b8152336060870181815260006080890181815260a08a018f815260c08b018f815260e08c018481528e85526005998a9052938d90209b518c55965160018c0180546001600160a01b0319908116928d16929092179055955160028c0155925160038b0180548716918b16919091179055516004808b0180549096169190991617909355519387019390935590516006860155516007909401805460ff1916941515949094179093559251637921219560e11b8152939450919263f242432a92610bbf929130918a91899101610f69565b600060405180830381600087803b158015610bd957600080fd5b505af1158015610bed573d6000803e3d6000fd5b50506040805133815260006020820181905281830188905260608201879052608082015290518793506001600160a01b038916925084917f978c4df9619213f3affab3fac0414c96e1fe1471bf25bd2ce0f9e816e1b934a4919081900360a00190a450506001600055505050565b6040518061010001604052806000815260200160006001600160a01b031681526020016000815260200160006001600160a01b0316815260200160006001600160a01b0316815260200160008152602001600081526020016000151581525090565b80356001600160a01b0381168114610cd457600080fd5b919050565b600082601f830112610ce9578081fd5b8135602067ffffffffffffffff821115610d0557610d056110d1565b8160051b610d14828201611040565b838152828101908684018388018501891015610d2e578687fd5b8693505b85841015610d50578035835260019390930192918401918401610d32565b50979650505050505050565b600082601f830112610d6c578081fd5b813567ffffffffffffffff811115610d8657610d866110d1565b610d99601f8201601f1916602001611040565b818152846020838601011115610dad578283fd5b816020850160208301379081016020019190915292915050565b600080600080600060a08688031215610dde578081fd5b610de786610cbd565b9450610df560208701610cbd565b9350604086013567ffffffffffffffff80821115610e11578283fd5b610e1d89838a01610cd9565b94506060880135915080821115610e32578283fd5b610e3e89838a01610cd9565b93506080880135915080821115610e53578283fd5b50610e6088828901610d5c565b9150509295509295909350565b600080600080600060a08688031215610e84578081fd5b610e8d86610cbd565b9450610e9b60208701610cbd565b93506040860135925060608601359150608086013567ffffffffffffffff811115610ec4578182fd5b610e6088828901610d5c565b600080600060608486031215610ee4578283fd5b610eed84610cbd565b95602085013595506040909401359392505050565b60008060008060808587031215610f17578384fd5b610f2085610cbd565b966020860135965060408601359560600135945092505050565b600060208284031215610f4b578081fd5b81356001600160e01b031981168114610f62578182fd5b9392505050565b6001600160a01b0394851681529290931660208301526040820152606081019190915260a06080820181905260009082015260c00190565b602080825282518282018190526000919060409081850190868401855b8281101561103357815180518552868101516001600160a01b039081168887015286820151878701526060808301518216908701526080808301519091169086015260a0808201519086015260c0808201519086015260e0908101511515908501526101009093019290850190600101610fbe565b5091979650505050505050565b604051601f8201601f1916810167ffffffffffffffff81118282101715611069576110696110d1565b604052919050565b60008219821115611084576110846110bb565b500190565b60008282101561109b5761109b6110bb565b500390565b60006000198214156110b4576110b46110bb565b5060010190565b634e487b7160e01b600052601160045260246000fd5b634e487b7160e01b600052604160045260246000fdfea2646970667358221220d9326f205611a73cd1ef53a0f54a046bd778876946108962e3ce20f61ef8344964736f6c63430008040033",
  "linkReferences": {},
  "deployedLinkReferences": {}
}