{
  "_format": "hh-sol-artifact-1",
  "contractName": "NFT1155",
  "sourceName": "contracts/NFT1155.sol",
  "abi": [
    {
      "inputs": [
        {
          "internalType": "address",
          "name": "placeAddress",
          "type": "address"
        }
      ],
      "stateMutability": "nonpayable",
      "type": "constructor"
    },
    {
      "anonymous": false,
      "inputs": [
        {
          "indexed": true,
          "internalType": "address",
          "name": "account",
          "type": "address"
        },
        {
          "indexed": true,
          "internalType": "address",
          "name": "operator",
          "type": "address"
        },
        {
          "indexed": false,
          "internalType": "bool",
          "name": "approved",
          "type": "bool"
        }
      ],
      "name": "ApprovalForAll",
      "type": "event"
    },
    {
      "anonymous": false,
      "inputs": [
        {
          "indexed": true,
          "internalType": "address",
          "name": "previousOwner",
          "type": "address"
        },
        {
          "indexed": true,
          "internalType": "address",
          "name": "newOwner",
          "type": "address"
        }
      ],
      "name": "OwnershipTransferred",
      "type": "event"
    },
    {
      "anonymous": false,
      "inputs": [
        {
          "indexed": true,
          "internalType": "address",
          "name": "operator",
          "type": "address"
        },
        {
          "indexed": true,
          "internalType": "address",
          "name": "from",
          "type": "address"
        },
        {
          "indexed": true,
          "internalType": "address",
          "name": "to",
          "type": "address"
        },
        {
          "indexed": false,
          "internalType": "uint256[]",
          "name": "ids",
          "type": "uint256[]"
        },
        {
          "indexed": false,
          "internalType": "uint256[]",
          "name": "values",
          "type": "uint256[]"
        }
      ],
      "name": "TransferBatch",
      "type": "event"
    },
    {
      "anonymous": false,
      "inputs": [
        {
          "indexed": true,
          "internalType": "address",
          "name": "operator",
          "type": "address"
        },
        {
          "indexed": true,
          "internalType": "address",
          "name": "from",
          "type": "address"
        },
        {
          "indexed": true,
          "internalType": "address",
          "name": "to",
          "type": "address"
        },
        {
          "indexed": false,
          "internalType": "uint256",
          "name": "id",
          "type": "uint256"
        },
        {
          "indexed": false,
          "internalType": "uint256",
          "name": "value",
          "type": "uint256"
        }
      ],
      "name": "TransferSingle",
      "type": "event"
    },
    {
      "anonymous": false,
      "inputs": [
        {
          "indexed": false,
          "internalType": "string",
          "name": "value",
          "type": "string"
        },
        {
          "indexed": true,
          "internalType": "uint256",
          "name": "id",
          "type": "uint256"
        }
      ],
      "name": "URI",
      "type": "event"
    },
    {
      "inputs": [
        {
          "internalType": "address",
          "name": "account",
          "type": "address"
        },
        {
          "internalType": "uint256",
          "name": "id",
          "type": "uint256"
        }
      ],
      "name": "balanceOf",
      "outputs": [
        {
          "internalType": "uint256",
          "name": "",
          "type": "uint256"
        }
      ],
      "stateMutability": "view",
      "type": "function"
    },
    {
      "inputs": [
        {
          "internalType": "address[]",
          "name": "accounts",
          "type": "address[]"
        },
        {
          "internalType": "uint256[]",
          "name": "ids",
          "type": "uint256[]"
        }
      ],
      "name": "balanceOfBatch",
      "outputs": [
        {
          "internalType": "uint256[]",
          "name": "",
          "type": "uint256[]"
        }
      ],
      "stateMutability": "view",
      "type": "function"
    },
    {
      "inputs": [
        {
          "internalType": "string",
          "name": "tokenURI",
          "type": "string"
        },
        {
          "internalType": "uint256",
          "name": "amount",
          "type": "uint256"
        }
      ],
      "name": "createToken",
      "outputs": [
        {
          "internalType": "uint256",
          "name": "",
          "type": "uint256"
        }
      ],
      "stateMutability": "nonpayable",
      "type": "function"
    },
    {
      "inputs": [
        {
          "internalType": "address",
          "name": "account",
          "type": "address"
        },
        {
          "internalType": "address",
          "name": "operator",
          "type": "address"
        }
      ],
      "name": "isApprovedForAll",
      "outputs": [
        {
          "internalType": "bool",
          "name": "",
          "type": "bool"
        }
      ],
      "stateMutability": "view",
      "type": "function"
    },
    {
      "inputs": [],
      "name": "name",
      "outputs": [
        {
          "internalType": "string",
          "name": "",
          "type": "string"
        }
      ],
      "stateMutability": "view",
      "type": "function"
    },
    {
      "inputs": [],
      "name": "owner",
      "outputs": [
        {
          "internalType": "address",
          "name": "",
          "type": "address"
        }
      ],
      "stateMutability": "view",
      "type": "function"
    },
    {
      "inputs": [],
      "name": "renounceOwnership",
      "outputs": [],
      "stateMutability": "nonpayable",
      "type": "function"
    },
    {
      "inputs": [
        {
          "internalType": "address",
          "name": "from",
          "type": "address"
        },
        {
          "internalType": "address",
          "name": "to",
          "type": "address"
        },
        {
          "internalType": "uint256[]",
          "name": "ids",
          "type": "uint256[]"
        },
        {
          "internalType": "uint256[]",
          "name": "amounts",
          "type": "uint256[]"
        },
        {
          "internalType": "bytes",
          "name": "data",
          "type": "bytes"
        }
      ],
      "name": "safeBatchTransferFrom",
      "outputs": [],
      "stateMutability": "nonpayable",
      "type": "function"
    },
    {
      "inputs": [
        {
          "internalType": "address",
          "name": "from",
          "type": "address"
        },
        {
          "internalType": "address",
          "name": "to",
          "type": "address"
        },
        {
          "internalType": "uint256",
          "name": "id",
          "type": "uint256"
        },
        {
          "internalType": "uint256",
          "name": "amount",
          "type": "uint256"
        },
        {
          "internalType": "bytes",
          "name": "data",
          "type": "bytes"
        }
      ],
      "name": "safeTransferFrom",
      "outputs": [],
      "stateMutability": "nonpayable",
      "type": "function"
    },
    {
      "inputs": [
        {
          "internalType": "address",
          "name": "operator",
          "type": "address"
        },
        {
          "internalType": "bool",
          "name": "approved",
          "type": "bool"
        }
      ],
      "name": "setApprovalForAll",
      "outputs": [],
      "stateMutability": "nonpayable",
      "type": "function"
    },
    {
      "inputs": [
        {
          "internalType": "bytes4",
          "name": "interfaceId",
          "type": "bytes4"
        }
      ],
      "name": "supportsInterface",
      "outputs": [
        {
          "internalType": "bool",
          "name": "",
          "type": "bool"
        }
      ],
      "stateMutability": "view",
      "type": "function"
    },
    {
      "inputs": [],
      "name": "symbol",
      "outputs": [
        {
          "internalType": "string",
          "name": "",
          "type": "string"
        }
      ],
      "stateMutability": "view",
      "type": "function"
    },
    {
      "inputs": [
        {
          "internalType": "address",
          "name": "newOwner",
          "type": "address"
        }
      ],
      "name": "transferOwnership",
      "outputs": [],
      "stateMutability": "nonpayable",
      "type": "function"
    },
    {
      "inputs": [
        {
          "internalType": "uint256",
          "name": "tokenId",
          "type": "uint256"
        }
      ],
      "name": "uri",
      "outputs": [
        {
          "internalType": "string",
          "name": "",
          "type": "string"
        }
      ],
      "stateMutability": "view",
      "type": "function"
    }
  ],
  "bytecode": "0x60806040523480156200001157600080fd5b5060405162001d0c38038062001d0c8339810160408190526200003491620001f5565b6040805160208101909152600081526200004e81620000e4565b506200005a33620000fd565b60408051808201909152600b8082526a5669727475616c4e65737360a81b60209092019182526200008e916006916200014f565b5060408051808201909152600580825264564e45535360d81b6020909201918252620000bd916007916200014f565b50600580546001600160a01b0319166001600160a01b039290921691909117905562000262565b8051620000f99060029060208401906200014f565b5050565b600380546001600160a01b038381166001600160a01b0319831681179093556040519116919082907f8be0079c531659141344cd1fd0a4f28419497f9722a3daafe3b4186f6b6457e090600090a35050565b8280546200015d9062000225565b90600052602060002090601f016020900481019282620001815760008555620001cc565b82601f106200019c57805160ff1916838001178555620001cc565b82800160010185558215620001cc579182015b82811115620001cc578251825591602001919060010190620001af565b50620001da929150620001de565b5090565b5b80821115620001da5760008155600101620001df565b60006020828403121562000207578081fd5b81516001600160a01b03811681146200021e578182fd5b9392505050565b600181811c908216806200023a57607f821691505b602082108114156200025c57634e487b7160e01b600052602260045260246000fd5b50919050565b611a9a80620002726000396000f3fe608060405234801561001057600080fd5b50600436106100e95760003560e01c806372b3b6201161008c578063a22cb46511610066578063a22cb465146101d2578063e985e9c5146101e5578063f242432a14610221578063f2fde38b1461023457600080fd5b806372b3b6201461019c5780638da5cb5b146101af57806395d89b41146101ca57600080fd5b80630e89341c116100c85780630e89341c1461014c5780632eb2c2d61461015f5780634e1273f414610174578063715018a61461019457600080fd5b8062fdd58e146100ee57806301ffc9a71461011457806306fdde0314610137575b600080fd5b6101016100fc3660046114a7565b610247565b6040519081526020015b60405180910390f35b61012761012236600461159b565b6102de565b604051901515815260200161010b565b61013f610330565b60405161010b91906117a7565b61013f61015a366004611629565b6103be565b61017261016d366004611364565b610460565b005b6101876101823660046114d0565b6104f7565b60405161010b9190611766565b610172610659565b6101016101aa3660046115d3565b6106bf565b6003546040516001600160a01b03909116815260200161010b565b61013f61071f565b6101726101e036600461146d565b61072c565b6101276101f3366004611332565b6001600160a01b03918216600090815260016020908152604080832093909416825291909152205460ff1690565b61017261022f36600461140a565b61073b565b610172610242366004611318565b6107c2565b60006001600160a01b0383166102b85760405162461bcd60e51b815260206004820152602b60248201527f455243313135353a2062616c616e636520717565727920666f7220746865207a60448201526a65726f206164647265737360a81b60648201526084015b60405180910390fd5b506000908152602081815260408083206001600160a01b03949094168352929052205490565b60006001600160e01b03198216636cdb3d1360e11b148061030f57506001600160e01b031982166303a24d0760e21b145b8061032a57506301ffc9a760e01b6001600160e01b03198316145b92915050565b6006805461033d906118fd565b80601f0160208091040260200160405190810160405280929190818152602001828054610369906118fd565b80156103b65780601f1061038b576101008083540402835291602001916103b6565b820191906000526020600020905b81548152906001019060200180831161039957829003601f168201915b505050505081565b60008181526009602052604090208054606091906103db906118fd565b80601f0160208091040260200160405190810160405280929190818152602001828054610407906118fd565b80156104545780601f1061042957610100808354040283529160200191610454565b820191906000526020600020905b81548152906001019060200180831161043757829003601f168201915b50505050509050919050565b6001600160a01b03851633148061047c575061047c85336101f3565b6104e35760405162461bcd60e51b815260206004820152603260248201527f455243313135353a207472616e736665722063616c6c6572206973206e6f74206044820152711bdddb995c881b9bdc88185c1c1c9bdd995960721b60648201526084016102af565b6104f0858585858561088d565b5050505050565b6060815183511461055c5760405162461bcd60e51b815260206004820152602960248201527f455243313135353a206163636f756e747320616e6420696473206c656e677468604482015268040dad2e6dac2e8c6d60bb1b60648201526084016102af565b6000835167ffffffffffffffff81111561058657634e487b7160e01b600052604160045260246000fd5b6040519080825280602002602001820160405280156105af578160200160208202803683370190505b50905060005b8451811015610651576106168582815181106105e157634e487b7160e01b600052603260045260246000fd5b602002602001015185838151811061060957634e487b7160e01b600052603260045260246000fd5b6020026020010151610247565b82828151811061063657634e487b7160e01b600052603260045260246000fd5b602090810291909101015261064a81611965565b90506105b5565b509392505050565b6003546001600160a01b031633146106b35760405162461bcd60e51b815260206004820181905260248201527f4f776e61626c653a2063616c6c6572206973206e6f7420746865206f776e657260448201526064016102af565b6106bd6000610a86565b565b60006106cf600480546001019055565b60006106da60045490565b90506106f733828560405180602001604052806000815250610ad8565b6107018185610bec565b600554610718906001600160a01b0316600161072c565b9392505050565b6007805461033d906118fd565b610737338383610cd9565b5050565b6001600160a01b038516331480610757575061075785336101f3565b6107b55760405162461bcd60e51b815260206004820152602960248201527f455243313135353a2063616c6c6572206973206e6f74206f776e6572206e6f7260448201526808185c1c1c9bdd995960ba1b60648201526084016102af565b6104f08585858585610dba565b6003546001600160a01b0316331461081c5760405162461bcd60e51b815260206004820181905260248201527f4f776e61626c653a2063616c6c6572206973206e6f7420746865206f776e657260448201526064016102af565b6001600160a01b0381166108815760405162461bcd60e51b815260206004820152602660248201527f4f776e61626c653a206e6577206f776e657220697320746865207a65726f206160448201526564647265737360d01b60648201526084016102af565b61088a81610a86565b50565b81518351146108ef5760405162461bcd60e51b815260206004820152602860248201527f455243313135353a2069647320616e6420616d6f756e7473206c656e677468206044820152670dad2e6dac2e8c6d60c31b60648201526084016102af565b6001600160a01b0384166109155760405162461bcd60e51b81526004016102af90611802565b3360005b8451811015610a1857600085828151811061094457634e487b7160e01b600052603260045260246000fd5b60200260200101519050600085838151811061097057634e487b7160e01b600052603260045260246000fd5b602090810291909101810151600084815280835260408082206001600160a01b038e1683529093529190912054909150818110156109c05760405162461bcd60e51b81526004016102af90611847565b6000838152602081815260408083206001600160a01b038e8116855292528083208585039055908b168252812080548492906109fd9084906118b5565b9250508190555050505080610a1190611965565b9050610919565b50846001600160a01b0316866001600160a01b0316826001600160a01b03167f4a39dc06d4c0dbc64b70af90fd698a233a518aa5d07e595d983b8c0526c8f7fb8787604051610a68929190611779565b60405180910390a4610a7e818787878787610ee4565b505050505050565b600380546001600160a01b038381166001600160a01b0319831681179093556040519116919082907f8be0079c531659141344cd1fd0a4f28419497f9722a3daafe3b4186f6b6457e090600090a35050565b6001600160a01b038416610b385760405162461bcd60e51b815260206004820152602160248201527f455243313135353a206d696e7420746f20746865207a65726f206164647265736044820152607360f81b60648201526084016102af565b336000610b448561104f565b90506000610b518561104f565b90506000868152602081815260408083206001600160a01b038b16845290915281208054879290610b839084906118b5565b909155505060408051878152602081018790526001600160a01b03808a1692600092918716917fc3d58168c5ae7397731d063d5bbf3d657854427343f4c083240f7aacaa2d0f62910160405180910390a4610be3836000898989896110a8565b50505050505050565b60008281526009602052604090208054610c05906118fd565b159050610c4b5760405162461bcd60e51b815260206004820152601460248201527343616e6e6f74205365742055524920547769636560601b60448201526064016102af565b60008281526009602090815260409091208251610c6a92840190611172565b506001600882604051610c7d91906116a7565b908152604051908190036020018120805492151560ff199093169290921790915582907f6bb7ff708619ba0610cba295a58592e0451dee2622938c8755667688daf3529b90610ccd9084906117a7565b60405180910390a25050565b816001600160a01b0316836001600160a01b03161415610d4d5760405162461bcd60e51b815260206004820152602960248201527f455243313135353a2073657474696e6720617070726f76616c20737461747573604482015268103337b91039b2b63360b91b60648201526084016102af565b6001600160a01b03838116600081815260016020908152604080832094871680845294825291829020805460ff191686151590811790915591519182527f17307eab39ab6107e8899845ad3d59bd9653f200f220920489ca2b5937696c31910160405180910390a3505050565b6001600160a01b038416610de05760405162461bcd60e51b81526004016102af90611802565b336000610dec8561104f565b90506000610df98561104f565b90506000868152602081815260408083206001600160a01b038c16845290915290205485811015610e3c5760405162461bcd60e51b81526004016102af90611847565b6000878152602081815260408083206001600160a01b038d8116855292528083208985039055908a16825281208054889290610e799084906118b5565b909155505060408051888152602081018890526001600160a01b03808b16928c821692918816917fc3d58168c5ae7397731d063d5bbf3d657854427343f4c083240f7aacaa2d0f62910160405180910390a4610ed9848a8a8a8a8a6110a8565b505050505050505050565b6001600160a01b0384163b15610a7e5760405163bc197c8160e01b81526001600160a01b0385169063bc197c8190610f2890899089908890889088906004016116c3565b602060405180830381600087803b158015610f4257600080fd5b505af1925050508015610f72575060408051601f3d908101601f19168201909252610f6f918101906115b7565b60015b61101f57610f7e6119ac565b806308c379a01415610fb85750610f936119c4565b80610f9e5750610fba565b8060405162461bcd60e51b81526004016102af91906117a7565b505b60405162461bcd60e51b815260206004820152603460248201527f455243313135353a207472616e7366657220746f206e6f6e20455243313135356044820152732932b1b2b4bb32b91034b6b83632b6b2b73a32b960611b60648201526084016102af565b6001600160e01b0319811663bc197c8160e01b14610be35760405162461bcd60e51b81526004016102af906117ba565b6040805160018082528183019092526060916000919060208083019080368337019050509050828160008151811061109757634e487b7160e01b600052603260045260246000fd5b602090810291909101015292915050565b6001600160a01b0384163b15610a7e5760405163f23a6e6160e01b81526001600160a01b0385169063f23a6e61906110ec9089908990889088908890600401611721565b602060405180830381600087803b15801561110657600080fd5b505af1925050508015611136575060408051601f3d908101601f19168201909252611133918101906115b7565b60015b61114257610f7e6119ac565b6001600160e01b0319811663f23a6e6160e01b14610be35760405162461bcd60e51b81526004016102af906117ba565b82805461117e906118fd565b90600052602060002090601f0160209004810192826111a057600085556111e6565b82601f106111b957805160ff19168380011785556111e6565b828001600101855582156111e6579182015b828111156111e65782518255916020019190600101906111cb565b506111f29291506111f6565b5090565b5b808211156111f257600081556001016111f7565b600067ffffffffffffffff83111561122557611225611996565b60405161123c601f8501601f191660200182611938565b80915083815284848401111561125157600080fd5b83836020830137600060208583010152509392505050565b80356001600160a01b038116811461128057600080fd5b919050565b600082601f830112611295578081fd5b813560206112a282611891565b6040516112af8282611938565b8381528281019150858301600585901b870184018810156112ce578586fd5b855b858110156112ec578135845292840192908401906001016112d0565b5090979650505050505050565b600082601f830112611309578081fd5b6107188383356020850161120b565b600060208284031215611329578081fd5b61071882611269565b60008060408385031215611344578081fd5b61134d83611269565b915061135b60208401611269565b90509250929050565b600080600080600060a0868803121561137b578081fd5b61138486611269565b945061139260208701611269565b9350604086013567ffffffffffffffff808211156113ae578283fd5b6113ba89838a01611285565b945060608801359150808211156113cf578283fd5b6113db89838a01611285565b935060808801359150808211156113f0578283fd5b506113fd888289016112f9565b9150509295509295909350565b600080600080600060a08688031215611421578081fd5b61142a86611269565b945061143860208701611269565b93506040860135925060608601359150608086013567ffffffffffffffff811115611461578182fd5b6113fd888289016112f9565b6000806040838503121561147f578182fd5b61148883611269565b91506020830135801515811461149c578182fd5b809150509250929050565b600080604083850312156114b9578182fd5b6114c283611269565b946020939093013593505050565b600080604083850312156114e2578182fd5b823567ffffffffffffffff808211156114f9578384fd5b818501915085601f83011261150c578384fd5b8135602061151982611891565b6040516115268282611938565b8381528281019150858301600585901b870184018b1015611545578889fd5b8896505b8487101561156e5761155a81611269565b835260019690960195918301918301611549565b5096505086013592505080821115611584578283fd5b5061159185828601611285565b9150509250929050565b6000602082840312156115ac578081fd5b813561071881611a4e565b6000602082840312156115c8578081fd5b815161071881611a4e565b600080604083850312156115e5578182fd5b823567ffffffffffffffff8111156115fb578283fd5b8301601f8101851361160b578283fd5b61161a8582356020840161120b565b95602094909401359450505050565b60006020828403121561163a578081fd5b5035919050565b6000815180845260208085019450808401835b8381101561167057815187529582019590820190600101611654565b509495945050505050565b600081518084526116938160208601602086016118cd565b601f01601f19169290920160200192915050565b600082516116b98184602087016118cd565b9190910192915050565b6001600160a01b0386811682528516602082015260a0604082018190526000906116ef90830186611641565b82810360608401526117018186611641565b90508281036080840152611715818561167b565b98975050505050505050565b6001600160a01b03868116825285166020820152604081018490526060810183905260a06080820181905260009061175b9083018461167b565b979650505050505050565b6020815260006107186020830184611641565b60408152600061178c6040830185611641565b828103602084015261179e8185611641565b95945050505050565b602081526000610718602083018461167b565b60208082526028908201527f455243313135353a204552433131353552656365697665722072656a656374656040820152676420746f6b656e7360c01b606082015260800190565b60208082526025908201527f455243313135353a207472616e7366657220746f20746865207a65726f206164604082015264647265737360d81b606082015260800190565b6020808252602a908201527f455243313135353a20696e73756666696369656e742062616c616e636520666f60408201526939103a3930b739b332b960b11b606082015260800190565b600067ffffffffffffffff8211156118ab576118ab611996565b5060051b60200190565b600082198211156118c8576118c8611980565b500190565b60005b838110156118e85781810151838201526020016118d0565b838111156118f7576000848401525b50505050565b600181811c9082168061191157607f821691505b6020821081141561193257634e487b7160e01b600052602260045260246000fd5b50919050565b601f8201601f1916810167ffffffffffffffff8111828210171561195e5761195e611996565b6040525050565b600060001982141561197957611979611980565b5060010190565b634e487b7160e01b600052601160045260246000fd5b634e487b7160e01b600052604160045260246000fd5b600060033d11156119c157600481823e5160e01c5b90565b600060443d10156119d25790565b6040516003193d81016004833e81513d67ffffffffffffffff8160248401118184111715611a0257505050505090565b8285019150815181811115611a1a5750505050505090565b843d8701016020828501011115611a345750505050505090565b611a4360208286010187611938565b509095945050505050565b6001600160e01b03198116811461088a57600080fdfea2646970667358221220935e73a9bb7fcdf02ca39e64c55b2cb780545829c5311e88f666434a56f7430164736f6c63430008040033",
  "linkReferences": {},
  "deployedLinkReferences": {}
}